S01E000054726166666963206C696768742062792053617261682E7372656305
S11300000C942A000C9447000C9447000C9447006D
S11300100C9447000C9447000C9447000C94470040
S11300200C9447000C9447000C9436030C9447003E
S11300300C9447000C9447000C9447000C94470020
S11300400C9447000C9447000C9447000C94470010
S11300500C94470011241FBECFE5D8E0DEBFCDBF0E
S113006010E0A0E6B0E0EAE4F7E002C005900D92EB
S1130070AC37B107D9F720E0ACE7B0E001C01D927E
S1130080AD37B207E1F70E946A020C94A3030C9403
S11300900000442319F04130C9F10895813091F0F2
S11300A028F08230D9F0833029F108952AB381E011
S11300B090E002C0880F991F6A95E2F78095822329
S11300C08ABB089527B381E090E002C0880F991F8E
S11300D06A95E2F78095822387BB089524B381E073
S11300E090E002C0880F991F6A95E2F780958223F9
S11300F084BB089521B381E090E002C0880F991F6A
S11301006A95E2F78095822381BB0895813089F056
S113011028F08230C9F0833011F108952AB381E0C8
S113012090E002C0880F991F6A95E2F7822B8ABB80
S1130130089527B381E090E002C0880F991F6A9563
S1130140E2F7822B87BB089524B381E090E002C0DC
S1130150880F991F6A95E2F7822B84BB089521B317
S113016081E090E002C0880F991F6A95E2F7822B24
S113017081BB0895442319F04130C9F108958130B9
S113018091F028F08230D9F0833029F108952BB30F
S113019081E090E002C0880F991F6A95E2F780958C
S11301A082238BBB089528B381E090E002C0880FBE
S11301B0991F6A95E2F78095822388BB089525B339
S11301C081E090E002C0880F991F6A95E2F780955C
S11301D0822385BB089522B381E090E002C0880F9A
S11301E0991F6A95E2F78095822382BB0895813036
S11301F089F028F08230C9F0833011F108952BB3CF
S113020081E090E002C0880F991F6A95E2F7822B83
S11302108BBB089528B381E090E002C0880F991F3A
S11302206A95E2F7822B88BB089525B381E090E0BC
S113023002C0880F991F6A95E2F7822B85BB089547
S113024022B381E090E002C0880F991F6A95E2F71B
S1130250822B82BB0895CF93C82F40E061E081E0F8
S11302600E94BA0040E062E081E00E94BA0040E0EF
S113027063E081E00E94BA008BB39C2F907F8F7063
S1130280892B8BBB41E063E081E00E94BA008FE9D7
S11302909FE00197F1F700C0000040E063E081E0D7
S11302A00E94BA002BB330E1C39FC0011124922FE6
S11302B09F70892B8BBB41E063E081E00E94BA0010
S11302C08FE99FE00197F1F700C0000040E063E090
S11302D081E00E94BA008FE19EE40197F1F700C02B
S11302E00000CF91089541E061E081E00E9449005F
S11302F041E062E081E00E94490041E063E081E086
S11303000E94490041E064E080E00E94490041E02D
S113031065E080E00E94490041E066E080E00E94E0
S1130320490041E067E080E00E9449002FEF81EE40
S113033094E0215080409040E1F700C0000082E04A
S11303400E942B0183E30E942B0182E30E942B0174
S113035088E20E942B018CE00E942B0181E00E9424
S11303602B0186E00E942B010895CF93C82F41E012
S113037061E081E00E94BA0040E062E081E00E9416
S1130380BA0040E063E081E00E94BA008BB39C2F86
S1130390907F8F70892B8BBB41E063E081E00E94EA
S11303A0BA008FE99FE00197F1F700C0000040E038
S11303B063E081E00E94BA002BB330E1C39FC00127
S11303C01124922F9F70892B8BBB41E063E081E065
S11303D00E94BA008FE99FE00197F1F700C0000086
S11303E040E063E081E00E94BA008FE19EE401975F
S11303F0F1F700C00000CF91089581E00E942B0125
S11304000895CF93DF93EC018881882361F08FE90D
S11304109FE00197F1F700C0000089910E94B501A7
S113042088818111F4CFDF91CF910895CF93DF9329
S1130430CDB7DEB72A970FB6F894DEBF0FBECDBF97
S11304402AE030E0AE014F5F5F4F0E945703CE01B8
S113045001960E9401022A960FB6F894DEBF0FBEE1
S1130460CDBFDF91CF91089541E062E082E00E9428
S11304704900089541E062E082E00E94BA000895D4
S113048040E062E082E00E94BA00089541E067E043
S113049082E00E944900089541E067E082E00E9402
S11304A0BA00089540E067E082E00E94BA0008952F
S11304B041E063E083E00E944900089541E063E085
S11304C083E00E94BA00089540E063E083E00E9464
S11304D0BA0008950E9434020E9446020E94580203
S11304E00E9473010E9447030AE015E0D7E0CDECB7
S11304F00093620010936100D09360000E94FD019C
S113050083E690E00E9401020E943A0225C0809195
S11305107C00843608F110927C0080916200815046
S11305208093620081E00E942B018BE690E00E94A0
S11305300102609162006C9F812D1124869586953D
S11305408695880F982F990F990F890F681B70E073
S113055080E090E00E941602809162008111D7CF62
S11305602FEF80E792E0215080409040E1F700C0F7
S113057000000E944C020E9440020E94FD018DE690
S113058090E00E94010225C080917C00843608F12D
S113059010927C008091610081508093610081E021
S11305A00E942B018BE690E00E94010260916100A1
S11305B06C9F812D1124869586958695880F982F9A
S11305C0990F990F890F681B70E080E090E00E94FA
S11305D01602809161008111D7CF2FEF89E698E14F
S11305E0215080409040E1F700C000000E945E026C
S11305F00E9452020E94FD0184E790E00E940102E1
S113060025C080917C00843608F110927C00809192
S1130610600081508093600081E00E942B018BE692
S113062090E00E940102609160006C9F812D112472
S1130630869586958695880F982F990F990F890F1F
S1130640681B70E080E090E00E94160280916000D8
S11306508111D7CF2FEF89E698E121508040904057
S1130660E1F700C000000E94640242CF1F920F9283
S11306700FB60F9211248F9380917C008F5F80932B
S11306807C008F910F900FBE0F901F90189583B729
S1130690886083BF8EE48CBF83B7816083BF83B7D8
S11306A0846083BF789489B7826089BF08952532B6
S11306B0310520F4223010F00C946203FA01108208
S11306C0CA010895BB272A3051F4992342F4BDE2AC
S11306D090958095709561957F4F8F4F9F4F0C94A7
S11306E07203BB27FA01A62F6217710581059105D4
S11306F0330B30FB66F0AA27660F771F881F991FFC
S1130700AA1FA21710F0A21B63953850A9F7A05D89
S1130710AA3308F0A95DA19336F7B111B193108201
S1130720CA010C949303DC01FC01672F71917723B8
S1130730E1F7329704C07C916D9370836291AE1798
S10D0740BF07C8F30895F894FFCF33
S113074A07050A2031302053454300200020352074
S10F075A53454300203720534543000062
S9030000FC
